:0A1BF200EF1FAC0670011E4C600EE0
:0C1BFC0075760C7577A9D577FDD576FAC3
:031C080080E8224F
:1015D000E4FFC2C4D2C2D2B520B3027F0420B2025B
:1015E0007F0520B1027F0620B0027F07D2C4C2C2AD
:1015F000D2B520B3027F0820B2027F0920B1027F5A
:101600000A20B0027F0BD2C4D2C2C2B520B3027F7F
:101610000C20B2027F0D20B1027F0E20B0027F0F9E
:0116200022A7
:0616BE000178000179FF34
:10180600300E0FA8077401088002C333D8FC427853
:10181600800EA8077401088002C333D8FCF45278FE
:10182600E57865796013E578F4F580E5A0541F4402
:0918360080F5A053A01F8578790C
:01183F002286
:101C6500C0F9A4B0999282F88090FFBF01020408E0
:041C7500102040807B
:100026007580FFE5A0541F44E0F5A053A01FEF9094
:100036001C7193F580E5A0541F44C0F5A053A01F82
:10004600ED901C6593300E06547FF5808002F58096
:0C005600E5A0541F44E0F5A053A01F22B9
:101C8D00538E7F5389F0438905E4F58AF58CC28D17
:031C9D00D28C22C4
:101C3B00538EBF53890F758B18758DFCC28FD28E47
:051C4B00D2ABD2AF2274
:101CD700438E0475D72075D6D1438E1043AF0422A7
:0616C400017A00017BFF2A
:101B32007580FFE5A0541F4480F5A053A01FE4F573
:0D1B420080E5A0541F44A0F5A053A01F2271
:101AEC00EF300F04427A8003F4527AE57A657B601A
:101AFC0011857A80E5A0541F44A0F5A053A01F8542
:021B0C007A7BE2
:011B0E0022B4
:041BA400D2A07F0A42
:101BA800000000000000000000000000000000AE7F
:061BB800071FEE70EB2296
:0F1CE700D2A1121BA4C2A17F0A121BA8C2A02265
:0C1D2100C2A1121BA4D2A17F0A021BA8C1
:02197D00AD07B4
:10197F00E4FCC2A07F0A121BA8ED30E704D2A180BD
:10198F0002C2A17F0A121BA8D2A0ED25E0FD7F0A9B
:09199F00121BA80CBC08DBC2A05D
:0119A800221C
:101B4F00E4FC121BA4ED25E0FD30A103430501C207
:0C1B5F00A07F0A121BA80CBC08E8AF0510
:011B6B002257
:101AC800AB05121CE77FA012197D121ADAAF0312B8
:021AD800197D76
:101ADA00121BA4A2A1E433FDC2A07F0A121BA8AF65
:011AEA0005F6
:011AEB0022D8
:101C0B00C2A0EF24FF92A17F0A121BA8121BA4C231
:081C1B00A0D2A17F0A021BA860
:021A5500AB07DD
:101A5700E4FD121CE77F90121ACF121CE77F911248
:101A6700197D121ADA121B4FAD077F01121C0B12D8
:041A77001D21AF0579
:011A7B002248
:101C5000AB07121CE77F9012197D121ADA7F43122C
:051C60001ACF021D2156
:10191A008B698A6A896B121AC8AF6D156DEF601FE1
:10192A00AB69056BE56BAA6A7002056A14F91205C0
:10193A00DEFF12197D121ADA7FC8121BA880DA029A
:02194A001D215D
:101700008B6E8A6F8970121AC8121CE77FA112199A
:101710007D121ADAAF721572EF6024121B4FAB6E96
:101720000570E570AA6F7002056F14F9EF120624B8
:10173000E5726004E4FF80027F01121C0B80D50279
:021740001D2169
:041BBE007F057E0021
:101BC200EF1FAA0670011E4A600BE4FDEDC3940CE0
:051BD20050EE0D80F74C
:011BD70022EB
:02000300A9074B
:10000500E4FBC294E9139294121BBED294E9C31384
:0C001500F90BBB08ED7F057E00021BC24A
:101BD800E4FBC294ECC313FCD29430940343048016
:091BE800121BBE0BBB08EBAF049D
:011BF10022D1
:101A7C00C20DD2947F0C7E00121BC2C2947F507E8A
:101A8C0000121BC2D2947F0A7E00121BC2A2949237
:061A9C000D121BBEA20D9D
:011AA2002221
:1018B200121A7C7FCC1200037F44120003121A7C9E
:1018C2007FCC1200037FBE120003121BD8A907129D
:1018D2001BD8EFAD01FCEC120382E4FBFA798078AD
:0418E2004102026756
:101CA000E4FEC297EF1392A3EFC313FFD2970EBEC9
:021CB00008F03A
:011CB200220F
:101C7900C29300C29700D29300121CA0AF05121C98
:041C8900A0C2932240
:1018E600E4FDC29300C29700D29300121CA0E4FF4D
:1018F600C297EDC313FD30A303430580D2970FBFF4
:1019060008EEC29300C29700D29700C2A300D2A3EA
:0319160000AF051A
:0119190022AB
:101CB300EF75F00A84C454F0FEEF75F00A84EE2544
:021CC300F0FF30
:011CC50022FC
:0E1CF600EFC4540F75F00AA4FEEF540F2EFF3A
:011D040022BC
:061A01008B088A09890A26
:101A0700E4FCEC25E0FFC374859FFF1218E6121C67
:101A1700F6AB08AA09A90A8C82758300EF1206366D
:041A27000CBC03DE12
:011A2B002298
:061840008B088A09890AE9
:10184600E4FD7F8E121C79E4FCAB08AA09A90A8C78
:10185600827583001205F7FF121CB3AD07EC25E075
:10186600FFC374849FFF121C790CBC03DC7D807F50
:041876008E021C7949
:061D4A0000007F21DFFE16
:011D50002270
:101CC600E4FED290121D4AC290121D4A0EBE08F2C0
:011CD60022EB
:10187A00E4F5E9F5F9F5D9121CC6D2DE3091033048
:10188A00DFFAC2DE20DF1CAFF9EFFEADE9EDFFACF7
:10189A0006E41203827B967A43798B783C12015EC6
:0718AA000203BBC2DF7F0057
:0118B1002214
:101B8900759850538EBF538EFE53890F758BE6752A
:0B1B99008DFFC2ABD28ED2ACD2AF22C7
:081D42008F993099FDC299222E
:101AA3008B1C8A1D891EAB1CAA1DA91E1205DE6094
:101AB30013051EE51E7002051D14F91205DEFF1243
:051AC3001D4280E2223B
:051D5700AE07021D4271
:0A16CA000263000004650000000048
:041336008E088F0985
:10133A00E56445637006850863850964AB0DAA0CEC
:10134A00A90BA80AE4FFFE7D807C3F120069C00455
:10135A00C005C006C007AC08AD09E4120382D00379
:10136A00D002D001D00012015EC004C005C006C080
:10137A0007AC63AD64E4120382AB0DAA0CA90BA8F7
:10138A000A12015ED003D002D001D00012006D1201
:06139A0003BB8E638F64AB
:0113A000222A
:0812C0008F528E518D508C4FAE
:1012C800AF68AE67AD66AC65EC4D4E4F700C85529D
:1012D80068855167855066854F65AB56AA55A954F0
:1012E800A853E4FFFE7D807C3F120069AB52AA51EF
:1012F800A950A84F12015EC004C005C006C007AFC0
:1013080056AE55AD54AC53AB68AA67A966A865122A
:10131800015ED003D002D001D00012006D8F5A8E2A
:0D132800598D588C578F688E678D668C65C7
:011335002295
:1011C1008B088A09890A900003ED120636AB0CAA36
:1011D1000DA90EC003C002C001AB08AA09A90A12D9
:1011E10007D6AB0FAA10A911C003C002C001AB08FA
:1011F100AA09A90A900004120855AB12AA13A9144E
:10120100C003C002C001AB08AA09A90A90000712D5
:101211000855AB15AA16A917C003C002C001AB0837
:10122100AA09A90A90000A120855AB18AA19A91A05
:10123100C003C002C001AB08AA09A90A90000D129F
:031241000855222B
:1019A900E574457545736023AB73AA74A9759000F6
:1019B9000A120825EA494B6012AB73AA74A97590FB
:0C19C900000A1208258B738A74897522AD
:1019D500E574457545736023AB73AA74A9759000CA
:1019E5000D120825EA494B6012AB73AA74A97590CC
:0C19F500000D1208258B738A748975227E
:10174200AB73AA74A97590000D120825EA494B6083
:10175200051219D580EAE574457545736023AB73AC
:10176200AA74A975900007120825EA494B6012ABCA
:1017720073AA74A9759000071208258B738A74895D
:021782007522CE
:10178400AB73AA74A97590000D120825EA494B6041
:10179400051219D580EAE574457545736023AB736A
:1017A400AA74A975900004120825EA494B6012AB8B
:1017B40073AA74A9759000041208258B738A74891E
:0217C40075228C
:101B0F00E57445754573601AAB73AA74A97512070E
:101B1F00B6EA494B600CAB73AA74A9751207B612DB
:031B2F0008D422B5
:0316D400011F00F3
:101403008B088A09890A8C0B8D0CE51FD3940A502B
:101413004F9000D5E0FCA3E0FDA3E0FEA3E0FFE5D1
:101423001F75F009A4247BF582E43400F5831207C9
:101433009AE51F75F009A4247FF582E43400F5834F
:10144300E50BF0A3E50CF0E51F75F009A42481F585
:1014530082E43400F583EBF0A3EAF0A3E9F0051F7F
:011463002266
:100F1300E4F508E508C3951F4003020FFDE50875D6
:100F2300F009A4247BF582E43400F583E0F8A3E020
:100F3300F9A3E0FAA3E0FB9000D5E0FCA3E0FDA356
:100F4300E0FEA3E0C39BFBEE9AFAED99F9EC98F867
:100F5300E50875F009A4247FF582E43400F583E005
:100F6300FEA3E0FFE4FCFDC3120789403A9000D5DD
:100F7300E0FCA3E0FDA3E0FEA3E0FFE50875F009B4
:100F8300A4247BF582E43400F58312079AE50875FF
:100F9300F009A42481F582E43400F583A3E0FAA3E5
:100FA300E0F91208D4804EE50875F009A4247BF516
:100FB30082E43400F583E0FCA3E0FDA3E0FEA3E0BC
:100FC300FF9000D5E0F8A3E0F9A3E0FAA3E0FBD398
:100FD30012078950209000D5E0FCA3E0FDA3E0FEBA
:100FE300A3E0FFE50875F009A4247BF582E434004F
:0A0FF300F58312079A0508020F1695
:010FFD0022D1
:030000000210B13A
:0C10B100787FE4F6D8FD75817B0210F812
:1016D7004400D5000000008310173B32023E000093
:100FFE00121B32121C8D121CD71218B2E4FBFA7996
:10100E00A0784212030440F17E007F087D007BFE33
:10101E007A0079001208DA7E007F087D0A7BFE7A5C
:10102E000079081208DA7E007F087D007BFE7A00C8
:10103E0079131208DA7BFE7A007910121840120D1D
:10104E00B77BFF7A1679717D0A7C001214037BFF41
:10105E007A1C79237DE87C031214037BFF7A1D79B9
:10106E00397DF47C011214037BFF7A1D792D7DEE00
:10107E007C021214037BFF7A1D79517DC87C00120D
:10108E0014037BFF7A1D79057DC87C001214037B47
:10109E00FF7A1579777D327C00121403D2AF120FCE
:0310AE001380FBB1
:030063000213A1E4
:1013A100C0E0C0F0C083C082C0D075D000C000C012
:1013B10001C002C003C004C005C006C0079000D52B
:1013C100E0FCA3E0FDA3E0FEA3E02401FFE43EFE78
:1013D100E43DFDE43CFC9000D512079A054EE54E34
:1013E1007002054D12194CD007D006D005D004D09B
:1013F10003D002D001D000D0D0D082D083D0F0D0A1
:02140100E032D7
:03002300021A2C92
:101A2C00C0E0C0D075D000C000C007309812C2987A
:101A3C00754D00754E00AF40054074482FF8A699BF
:091A4C00D007D000D0D0D0E03268
:0D1D140073797374696D653A25640D0A00DA
:1016E700015E00C109C10AC18B015F00C10C036023
:0316F700000000F0
:101671001215D08F5BE55B655EFF555BF55CE55B45
:10168100F45FF55D855B5EE55C24FC6023146023FB
:10169100146023146023147023A209B392097E00FD
:1016A1007F08A209E433FD7BFE7A0079130208DA90
:0C16B1000217840217420219A91219D571
:0116BD00220A
:10194C009000D5E0FCA3A3E0FEA3E05407FF8F1B9F
:10195C0074082FF8E2FD74002FF8E224FF920E12A7
:10196C0000267413251BF8E224FF920EAF1B0218FD
:01197C000664
:101C2300C28CC2ABAF8CEFAD8AF53EEDF53FE4F568
:081C33008AF58CD2ABD28C22A1
:101B6C00A20A920F7F40121AECA20B920F7F101256
:0C1B7C001AECA20AB3920AA20BB3920B5F
:011B8800223A
:091D39007BFE7A007910021A0108
:0C1D2D001218B28F478E468D458C442260
:061D510012187A8F4322F4
:10151E00055FE55FB40427E4F55F7BE87A03F9F82D
:10152E009000D5E0FCA3E0FDA3E0FEA3E0FF1206D1
:10153E00E98E258F267BFF7A1D79141209AAD3E531
:0E154E004E942CE54D9401401FE548B4311A2F
:10155C00E4F540F548FE7F08A20C33FD7BFE7A00D3
:0A156C0079131208DAA20CB3920CF6
:011576002252
:0F1D05007F41121A558F417F43121A558F422288
:10157700E5614562456070098573608574618575AD
:1015870062AB60AA61A962E573857483857582651C
:1015970060700AE56265827004E561658360277E95
:1015A700007F087D0A7BFE7A0079081208DA7E0040
:1015B7007F087D007BFE7A0079001208DA85736068
:0915C700857461857562021B0F39
:0516FA00037300000075
:1012440085470B85460A8545098544087808740155
:10125400F208740AF2E4FFFE7D207C41AB0BAA0A7B
:10126400A909A80812015E1203BBAB07AA067C00F9
:101274007D641206587C007D0A120658780DEDF242
:101284007C007D0AAF03AE021206587C007D0A1270
:101294000658780EEDF2E4FFFE7D207C41AB0BAAEC
:1012A4000AA909A80812015E1203BB7C007D0A1278
:0B12B4000658780FEDF278067401F286
:0112BF00220C
:10146400AF417E00750DCD750CCC750B4C750A3EE5
:10147400121336AB07AA0678087402F208740AF24B
:10148400780B7401F27C007D641206587C007D0A9E
:10149400120658780DEDF27C007D0AAF03AE0212FD
:1014A40006587C007D0A120658780EEDF2AE02AFA3
:0C14B400037C007D0A120658780FEDF250
:0114C0002209
:1014C100AF427E00750DCD750CCC750B4C750A3E87
:1014D100121336AB07AA0678087402F208740AF2EE
:1014E100780B7402F27C007D641206587C007D0A40
:1014F100120658780DEDF27C007D0AAF03AE0212A0
:1015010006587C007D0A120658780EEDF2AE02AF45
:0C151100037C007D0A120658780FEDF2F2
:01151D0022AB
:1016210078087403F208740AF27810E2FF75F00A80
:1016310084780AF2EF75F00A8408E5F0F278037411
:101641000BF27811E2FF75F00A84780CF2EF75F075
:101651000A8408E5F0F27805740BF27812E2FF755E
:10166100F00A84780EF2EF75F00A8408E5F0F222B0
:1017C600AF437E00750DCD750CCC750B4C750A3E7E
:1017D60012133678087404F208740AF2EF75F0648E
:1017E6008475F00A8408E5F0F2EF75F00A8475F066
:0F17F6000A8408E5F0F2EF75F00A8408E5F0F2D6
:0118050022C0
:10113D00750DCD750CCC750B4C750A3EAF3FAE3EA3
:10114D00121336AB07AA0678087405F208740AF272
:10115D007C277D101206587C007D0A120658780AED
:10116D00EDF27C037DE8AF03AE021206587C007DE4
:10117D000A120658780BEDF27C007D64AF03AE02C7
:10118D001206587C007D0A120658780CEDF27C0090
:10119D007D0AAF03AE021206587C007D0A12065876
:1011AD00780DEDF2AE02AF037C007D0A1206587881
:0311BD000EEDF242
:0111C000220C
:100DB700750CFF750D12750E44750F0175100075D2
:100DC700111B75120175130075144B7515007516F7
:100DD70000751700751800751900751A007B017AE0
:100DE70000793B7D201211C1750CFF750D14750E2E
:100DF70064750F0175100075113B751201751300AD
:100E070075142B75150175160075175B7518007528
:100E17001900751A007B017A00794B7D301211C1D8
:100E2700750CFF750D14750EC1750F0075100075E3
:100E370011007512007513007514007515017516EC
:100E47000075174B751801751900751A4B7B017AD8
:100E570000795B7D311211C1750CFF750D16750E8A
:100E670021750F0175100075114B7512017513006F
:100E770075146B75150075160075170075180075D4
:100E87001900751A007B017A00792B7D401211C178
:100E9700750CFF750D17750EC6750F01751000756A
:100EA700112B75120175130075141B751500751636
:100EB70000751700751800751900751A007B017AFF
:100EC70000796B7D501211C1750CFF750D11750EF0
:100ED7003D750F0175100075116B751201751300C3
:100EE70075143B7515007516007517007518007594
:100EF7001900751A007B017A00791B7D601211C1F8
:0C0F070075730175740075753B021B0FBB
:10006600020427E86480F8E933E83360110460F09D
:10007600ED33EC337009E8FCE9FDEAFEEBFF220400
:1000860060DED3EB9FEA9EE99DE8C2E78CF0C2F7FB
:1000960095F0400CE8CCF8E9CDF9EACEFAEBCFFBC7
:1000A6001203F285D0F05804700320D5B3E804702B
:1000B600075002B2D502043192D5EC0460F7E4CCC5
:1000C600C0E0C398F8603B94186008400DD0E0FB90
:1000D600020409E4FBFAC9FC8028E830E406E4C916
:1000E600FBE4CAFCE830E305E4C9CACBFCE85407E4
:1000F6006010F8C3E913F9EA13FAEB13FBEC13FCEF
:10010600D8F130F52FC3E49CFCEF9BFFEE9AFEED91
:1001160099FDD0E0FBEF4E4D4C701222DB0302043A
:100126002EEC2CFCEF33FFEE33FEED33FDED30E726
:10013600EB020409EF2BFFEE3AFEED39FDD0E0FBB2
:1001460050130BBB0003020431ED13FDEE13FEEF5B
:0801560013FFEC13FC02040985
:10015E00EC4D6011E8497017ED33EC3304600DE49B
:10016E00FCFFFEFD22E933E8330470F80204271287
:10017E0003F258046009E4CC248150062850090289
:10018E00043128400302042EC0E0EB4A7044B980CB
:10019E0006D0E0FB02041DEF4E701CBD8008EBFF85
:1001AE00EAFEE9FD80EBE98DF0A4FEE5F0020247E0
:1001BE00E9CDF9EAFEEBFFEF89F0A4FCE5F0CE897C
:1001CE00F0A42EFFE435F0CD89F0A42DFEE435F039
:1001DE008067EF4E7005BD80D780C3EF8BF0A4AC67
:1001EE00F0EE8BF0A42CFCE435F0F8EF8AF0A42CA2
:1001FE00E5F038FCE433CB8DF0A42CFCE5F03BF8B5
:10020E00EE8AF0A42CFCE5F038F8E433CF89F0A4A4
:10021E002CFCE5F038CF3400CE89F0A42FFFE5F0AA
:10022E003EFEE433C98DF0A42EFEE5F039CD8AF002
:10023E00A42FFFE5F03EFEE43DFD33D0E0FB50077A
:10024E000BBB000F020431EC2CFCEF33FFEE33FE40
:06025E00ED33FD0204096E
:10026400020431EC5D046005E859047003020427BC
:100274001203F2580460F6EC4860F2EC7004FDFEE0
:10028400FF22C860DB2481C85009C398600250066D
:1002940002042E9850CAF582E9294B4A7005AB82B4
:1002A40002041D75F0007C1A7880C3EF9BEE9AED72
:1002B40099400DC3EF9BFFEE9AFEED99FDE842F0E5
:1002C400DC23ACF0D0E0FFD0E0FED0E0FDAB822038
:1002D400E7101BEB60BAEC2CFCEF33FFEE33FEEDC2
:1002E40033FD020409E803F830E705C0F075F000B7
:1002F400EF2FFFEE33FEED33FD40B830E7C280AAA6
:1003040074F8CC6480CCC86480C8F58204604FC3A0
:10031400EB9FF5F0EA9E42F0E99D42F0E89C45F03F
:10032400603C501DE5825FFFE582D313CB5BCBF4C9
:100334002B5582FB50280ABA002409B900200880F2
:100344001DE5825BFBE582D313CF5FCFF4C3132F8C
:100354005582FF50090EBE00050DBD00010CC3EB14
:100364009FF5F0EA9E42F0E99D42F0E89C45F0607A
:0903740007CC4820E701B3EC229C
:10037D0075F020800E75F010800575F0087D007EFB
:10038D00007F003392D530D50312077BEC3340103C
:10039D00EF33FFEE33FEED33FDEC33FCD5F0ED2204
:0E03AD00E5F0247EA2D513CC92E7CDCEFF2240
:1003BB00EDD2E7CD33EC3392D524814006E4FFFE3A
:1003CB00FDFC22FCE4CFCECDCC24E0501174FF8099
:1003DB00EDC3CC13CCCD13CDCE13CECF13CF047036
:0703EB00F030D5DE02077BB4
:10094800E5392425F8E6053922782230070278258A
:10095800E475F0011207A60205DE2000EB7F2ED217
:10096800008018EF540F2490D43440D4FF30040B87
:10097800EF24BFB41A0050032461FFE53A60021562
:100988003A053DE53D7002053C30070D7822E475D7
:10099800F0011207A6EF020624021D577403D207BE
:1009A8008003E4C207F5398B228A238924E4F53AC7
:1009B800F53CF53DE53A60077F2012098380F5751F
:1009C8003BFFC201C200C202C203C205C206C2087E
:1009D800120951FF700D3007057F00120994AF3DD1
:1009E800AE3C22B4255FC2D5C204120951FF24D0FF
:1009F800B40A00501A75F00A783A30D50508B6FFDF
:100A08000106C6A426F620D5047002D20380D92494
:100A1800CFB41A00EF5004C2E5D204020C81D2010F
:100A280080C6D20080C0D20280BCD2D580BAD2059E
:100A380080B47F201209832002077401B53A004070
:100A4800F1120948FF1209830209BCD208D20680B4
:100A580095120948FB120948FA120948F94A4B70DD
:100A68000679787A0D7BFF20022EE53A602A7E000F
:100A78008E827583001205F760060EEE653B70F0F6
:100A8800C2D5EBC0E0EAC0E0E9C0E0EE120CE1D06C
:100A9800E0F9D0E0FAD0E0FB1205DEFF60AAEBC077
:100AA800E0EAC0E0E9C0E0120983D0E02401F9D00F
:100AB800E03400FAD0E0FBE53B0460DCD53BD980AC
:100AC80087D20280A2120CC460F7E53B70010412C1
:100AD800043CA93B600DE53B600914F53B120D6B26
:100AE800EF60F3EA30E702F404C3995077EAF4259B
:100AF8003B0430E701E404F53B800D120CC460C1EF
:100B0800EA053B253B12043CEA7838F630E701E475
:100B1800253B04D53B0420050114120CE1E4C0E098
:100B2800120D6B7838E6601320E70714F612096B8C
:100B3800802204F6D0E014C0E07F0012096BE53B88
:100B48006007120962153B800B300503120962D059
:100B5800E00209BCD0E00480C5120CC460A0E53BEB
:100B68000412043C7838EAF6E53B200502600104EB
:050B78002404120CE151
:100B7D0074FF04C0E0120D6B12096BE53B200502FA
:100B8D006003120962D0E0B53BE87F451209757824
:100B9D0038E67F2B30E7047F2DF404C0E012098383
:100BAD00D0E075F00A84C0F012096CD0E012096C27
:100BBD000209BC791080027908C206C2088008D2E9
:100BCD00D5790A8004790AC2D5E53B047002F53B5C
:100BDD00E4FAFDFEFF120948FC7B082001131209FF
:100BED0048FD7B1030000A120948FE120948FF7BB0
:100BFD0020EC3382D592D55013C3E43000069FFF0D
:100C0D00E49EFEE42001039DFDE49CFCE4CBF8C2D0
:100C1D0001EC700CCFCECDCCE824F8F870F3801732
:100C2D00C3EF33FFEE33FEED33FDEC33FCEB33FB63
:100C3D00994002FB0FD8E9EB300105F8D0E0C4482C
:100C4D00B201C0E00AEC4D4E4F78207B0070C2EA35
:100C5D00B53B0040BCC0E0120CE3D0F0D0E0200169
:100C6D0004C4C0E0C4B201C0F012096CD0F0D5F0DC
:100C7D00EB0209BC1208AE0A59530BC0580A2A4C94
:100C8D000A26420BC44F0BCC440BCC490A3F430BF5
:100C9D00D2550B03460B61450ACD470D98500A2ED0
:100CAD002D0A322E0A552B0A36230A53200D812A7E
:100CBD0009EE4800000A4DE53BB4FF03753B0612F3
:100CCD000948FC120948FD120948FE120948FF782F
:100CDD003102046B790AA2D5200314300509B9102D
:100CED00020404B9080104A2D52006025001042013
:100CFD0002689202B53A005034C0E07F20300319EB
:100D0D007F30A20272067205500F120D3AC202C256
:100D1D0006C205C2087F30800F300503E9C0E0121E
:100D2D000983300503D0E0F9D0E0B53ACC30051792
:100D3D007F30B9100C1209837F583004077F7880FB
:100D4D0003B908031209833002057F2D0209837F41
:100D5D00202008F87F2B2006F322920280CF7F00FF
:100D6D00B4070050052431F8E6FF22286E756C6C2F
:100D7D002900D2011209483001F8C201783A30D564
:100D8D000108F60209EE2D50434958120948240373
:100D9D00B405004001E4900D9393120974743A1256
:0A0DAD000974D203753A04020BC06A
:1003F200E9D2E7C933E833F892D5EDD2E7CD33EC51
:0704020033FC5002B2D522C9
:10040900EC30E7100FBF000C0EBE00080DBD000454
:100419000BEB6014A2D5EB13FCED92E7FD2274FF00
:10042900FCFDFEFF22E480F8A2D574FF13FC7D8059
:03043900E480EF6D
:10043C00F920E72824F950037907E4F42402FB1887
:10044C00DBFDE624FB5014E9600DE4F618E604F637
:0F045C00B40A08E4F6D9F57401F60A22C2D522D3
:10046B00ED33EC3392D5FA602AB4FF33EDC2E77B60
:10047B00FF60067A047990E4227A04799920D504F6
:10048B007A047994224E614E002B494E46002D4939
:10049B004E4600E47A08F608DAFC7B00740722E883
:1004AB00C0E0ECC0E0EDC0E0EEC0E0EFC0E0EA750C
:1004BB00F010A4CAABF075F04DA42BFBE435F0FCA7
:1004CB00EA2410FAEB34C5FBEC34D9FCEDC2E7FFA0
:1004DB0075F056A4F42411C5F0F434C58FF0A42A9A
:1004EB00E5F03BE43CF620E71412059ED0E0FFD08C
:1004FB00E0FED0E0FDD0E0FC1202678014F40412A1
:10050B00059ED0E0FFD0E0FED0E0FDD0E0FC120174
:10051B005ED0E0F8E6FAEDD2E7CD33EC332482FB84
:10052B00E4C3CF33CFCE33CECD33CD33DBF37B0729
:10053B0075F00A846004F6081B0AE5F0F6088FF0E4
:10054B00740AA4FFACF08EF0740AA42CFEACF0502D
:10055B00010C8DF0740AA42CFDE435F0F608DBDEFB
:03056B00740722F0
:10056E003F8000004120000042C80000447A000095
:10057E00461C400047C35000497424004B18968017
:10058E004CBEBC205A0E1BCA6753C21C749DC5AE0E
:10059E00FB60065407601C23231205CCEB54386015
:1005AE00091205B81205C712015EECF8EDF9EEFA64
:1005BE00EFCB22EB1205C780F1543803241C9005B3
:1005CE006EFE93FC0EEE93FD0EEE930ECE93FF2277
:1010BD00020FFEE493A3F8E493A34003F68001F23C
:1010CD0008DFF48029E493A3F85407240CC8C33334
:1010DD00C4540F4420C8834004F456800146F6DF03
:1010ED00E4800B01020408102040809016BEE47EBF
:1010FD00019360BCA3FF543F30E509541FFEE493F8
:10110D00A360010ECF54C025E060A840B8E493A3BE
:10111D00FAE493A3F8E493A3C8C582C8CAC583CAE9
:10112D00F0A3C8C582C8CAC583CADFE9DEE780BEA1
:0116FF0000EA
:1005DE00BB010689828A83E0225002E722BBFE021B
:0905EE00E32289828A83E493224E
:1005F700BB010CE58229F582E5833AF583E02250B9
:1006070006E92582F8E622BBFE06E92582F8E22202
:0D061700E58229F582E5833AF583E493221C
:10062400BB010689828A83F0225002F722BBFE01B5
:02063400F322AF
:10063600F8BB010DE58229F582E5833AF583E8F0FA
:10064600225006E92582C8F622BBFE05E92582C8A6
:02065600F2228E
:10065800BC000BBE0029EF8DF084FFADF022E4CC86
:10066800F875F008EF2FFFEE33FEEC33FCEE9DEC4F
:10067800984005FCEE9DFE0FD5F0E9E4CEFD22ED95
:10068800F8F5F0EE8420D21CFEADF075F008EF2FDF
:10069800FFED33FD4007985006D5F0F222C398FDD0
:0506A8000FD5F0EA226D
:1006AD0075F008758200EF2FFFEE33FECD33CDCC04
:1006BD0033CCC58233C5829BED9AEC99E582984087
:1006CD000CF582EE9BFEED9AFDEC99FC0FD5F0D664
:1006DD00E4CEFBE4CDFAE4CCF9A88222B800C1B98E
:1006ED000059BA002DEC8BF084CFCECDFCE5F0CBCC
:1006FD00F97818EF2FFFEE33FEED33FDEC33FCEB05
:10070D0033FB10D703994004EB99FB0FD8E5E4F9BF
:10071D00FA227818EF2FFFEE33FEED33FDEC33FCAC
:10072D00C933C910D7059BE99A4007EC9BFCE99AA0
:10073D00F90FD8E0E4C9FAE4CCFB2275F010EF2FE5
:10074D00FFEE33FEED33FDCC33CCC833C810D707E5
:10075D009BEC9AE899400AED9BFDEC9AFCE899F820
:0E076D000FD5F0DAE4CDFBE4CCFAE4C8F922B3
:0E077B00C3E49FFFE49EFEE49DFDE49CFC228F
:10078900EB9FF5F0EA9E42F0E99D42F0E89C45F0C6
:01079900223D
:0C079A00ECF0A3EDF0A3EEF0A3EFF022D2
:1007A600FAE6FB0808E6F925F0F618E6CA3AF62254
:1007B600BB010789828A830209185005E9F80209F4
:1007C60006BBFE05E9F802092A89828A8302093CEA
:1007D600BB011A89828A83D0F0D0E0F8D0E0F9D044
:1007E600E0FAD0E0FBE8C0E0C0F00209215016E9CB
:1007F600F8D083D082D0E0F9D0E0FAD0E0FBC08216
:10080600C08302090FBBFE16E9F8D083D082D0E080
:0F081600F9D0E0FAD0E0FBC082C08302093322A0
:10082500BB010DE58229F582E5833AF583020918B6
:100835005007E92582F8020906BBFE07E92582F87B
:1008450002092AE58229F582E5833AF58302093C06
:10085500BB0120E58229F582E5833AF583D0F0D006
:10086500E0F8D0E0F9D0E0FAD0E0FBE8C0E0C0F075
:100875000209215018E92582F8D083D082D0E0F909
:10088500D0E0FAD0E0FBC082C08302090FBBFE189E
:10089500E92582F8D083D082D0E0F9D0E0FAD0E023
:0908A500FBC082C083020933226A
:1008AE00D083D082F8E4937012740193700DA3A3D9
:1008BE0093F8740193F5828883E4737402936860ED
:0608CE00EFA3A3A380DFED
:0608D4008A838982E473AF
:1008DA00EF4E6012EF60010EEDBB010B89828A8335
:1008EA00F0A3DFFCDEFA2289F05007F709DFFCA942
:0C08FA00F022BBFEFCF309DFFCA9F02299
:09090600E6FB08E6FA08E6F92216
:09090F00EBF608EAF608E9F6220D
:09091800E0FBA3E0FAA3E0F922E0
:09092100EBF0A3EAF0A3E9F022D7
:09092A00E2FB08E2FA08E2F922FE
:09093300EBF208EAF208E9F222F5
:0C093C00E493FB740193FA740293F92217
:00000001FF
