:1016A600E4FFC2C4D2C2D2B520B3027F0420B20284
:1016B6007F0520B1027F0620B0027F07D2C4C2C2D6
:1016C600D2B520B3027F0820B2027F0920B1027F83
:1016D6000A20B0027F0BD2C4D2C2C2B520B3027FA9
:1016E6000C20B2027F0D20B1027F0E20B0027F0FC8
:0116F60022D1
:101CE000C0F9A4B0999282F88090FFBF0102040865
:041CF0001020408000
:100026007580FFE5A0541F44E0F5A053A01FEF9094
:100036001CEC93F580E5A0541F44C0F5A053A01F07
:10004600ED901CE093300E06547FF5808002F5801B
:0C005600E5A0541F44E0F5A053A01F22B9
:101D0800538E7F5389F0438905E4F58AF58CC28D9B
:031D1800D28C2248
:101CB600538EBF53890F758B18758DFCC28FD28ECC
:051CC600D2ABD2AF22F9
:101D5200438E0475D72075D6D1438E1043AF04222B
:0C181E00011C00011DFF011E00011FFF46
:101BC6007580FFE5A0541F4480F5A053A01FE4F5DF
:0D1BD60080E5A0541F44A0F5A053A01F22DD
:10191D00300E0FA8077401088002C333D8FC421C97
:10192D00800EA8077401088002C333D8FCF4521C42
:10193D00E51C651D6013E51CF4F580E5A0541F44FE
:09194D0080F5A053A01F851C1DAC
:01195600226E
:101BA300EF300F04421E8003F4521EE51E651F60D2
:101BB30011851E80E5A0541F44A0F5A053A01F85E6
:021BC3001E1FE3
:011BC50022FD
:041C3800D2A07F0AAD
:101C3C00000000000000000000000000000000AEEA
:061C4C00071FEE70EB2201
:0F1D6200D2A1121C38C2A17F0A121C3CC2A022BF
:0C1D9C00C2A1121C38D2A17F0A021C3C1C
:021A8B00AD07A5
:101A8D00E4FCC2A07F0A121C3CED30E704D2A18019
:101A9D0002C2A17F0A121C3CD2A0ED25E0FD7F0AF7
:091AAD00121C3C0CBC08DBC2A0B9
:011AB600220D
:101BE300E4FC121C38ED25E0FD30A103430501C2DE
:0C1BF300A07F0A121C3C0CBC08E8AF05E7
:011BFF0022C3
:101B7F00AB05121D627FA0121A8B121B91AF0312BD
:021B8F001A8BAF
:101B9100121C38A2A1E433FDC2A07F0A121C3CAF83
:011BA100053E
:011BA2002220
:101C8600C2A0EF24FF92A17F0A121C3C121C38C28C
:081C9600A0D2A17F0A021C3C50
:021B0C00AB0725
:101B0E00E4FD121D627F90121B86121D627F9112E0
:101B1E001A8B121B91121BE3AD077F01121C86124A
:041B2E001D9CAF0546
:011B32002290
:101CCB00AB07121D627F90121A8B121B917F43126E
:051CDB001B86021D9CA8
:1019F7008B648A658966121B7FAF681568EF601F65
:101A0700AB640566E566AA657002056514F91205FB
:101A1700DEFF121A8B121B917FC8121C3C80DA0260
:021A27001D9C04
:1017DC008B698A6A896B121B7F121D627FA1121A98
:1017EC008B121B91AF6D156DEF6024121BE3AB696F
:1017FC00056BE56BAA6A7002056A14F9EF120624F0
:10180C00E56D6004E4FF80027F01121C8680D50226
:02181C001D9C11
:041C52007F057E008C
:101C5600EF1FAA0670011E4A600BE4FDEDC3940C4B
:051C660050EE0D80F7B7
:011C6B002256
:02000300A9074B
:10000500E4FBC294E9139294121C52D294E9C313EF
:0C001500F90BBB08ED7F057E00021C56B5
:101C6C00E4FBC294ECC313FCD29430940343048081
:091C7C00121C520BBB08EBAF0473
:011C8500223C
:101B3300C20DD2947F0C7E00121C56C2947F507E3D
:101B430000121C56D2947F0A7E00121C56A2949255
:061B53000D121C52A20D50
:011B59002269
:10198F00121B337FCC1200037F44120003121B3350
:10199F007FCC1200037FBE120003121C6CA907122A
:1019AF001C6CEFAD01FCEC120382E4FBFA7980783A
:0419BF004102026778
:101D1B00E4FEC297EF1392A3EFC313FFD2970EBE4D
:021D2B0008F0BE
:011D2D002293
:101CF400C29300C29700D29300121D1BAF05121DA0
:041D04001BC2932249
:1019C300E4FDC29300C29700D29300121D1BE4FFF3
:1019D300C297EDC313FD30A303430580D2970FBF16
:1019E30008EEC29300C29700D29700C2A300D2A30D
:0319F30000AF053D
:0119F60022CE
:101D2E00EF75F00A84C454F0FEEF75F00A84EE25C8
:021D3E00F0FFB4
:011D40002280
:0E1D7100EFC4540F75F00AA4FEEF540F2EFFBE
:011D7F002241
:061AB7008B3E8A3F8940CE
:101ABD00E4FCEC25E0FFC374859FFF1219C3121DD2
:101ACD0071AB3EAA3FA9408C82758300EF1206369A
:041ADD000CBC03DE5C
:011AE10022E2
:061794008B3E8A3F8940F4
:10179A00E4FD7F8E121CF47D807F80121CF4E4FC31
:1017AA00AB3EAA3FA9408C827583001205F7FF124F
:1017BA001D2EAD07EC25E0FFC374849FFF121CF4B5
:1017CA000CBC03DCE4FD7F80121CF47D807F8E025A
:0217DA001CF4FD
:061DC50000007F21DFFE9B
:011DCB0022F5
:101D4100E4FED290121DC5C290121DC50EBE08F24E
:011D5100226F
:10195700E4F5E9F5F9F5D9121D41D2DE30910330EE
:10196700DFFAC2DE20DF1CAFF9EFFEADE9EDFFAC19
:1019770006E41203827B967A43798B783C12015EE8
:071987000203BBC2DF7F0079
:01198E002236
:101C1D00759850538EBF538EFE53890F758BE67595
:0B1C2D008DFFC2ABD28ED2ACD2AF2232
:081DBD008F993099FDC29922B3
:101B5A008B6E8A6F8970AB6EAA6FA9701205DE60F0
:101B6A00130570E5707002056F14F91205DEFF1295
:051B7A001DBD80E22208
:051DD200AE07021DBD7B
:0A182A00025E0000046000000000F0
:0413B3008E3E8F3F9C
:1013B700E55F455E7006853E5E853F5FAB43AA42AB
:1013C700A941A840E4FFFE7D807C3F120069C0046C
:1013D700C005C006C007AC3EAD3FE4120382D00390
:1013E700D002D001D00012015EC004C005C006C003
:1013F70007AC5EAD5FE4120382AB43AA42A941A8E2
:101407004012015ED003D002D001D00012006D124D
:0614170003BB8E5E8F5F37
:01141D0022AC
:0812D1008F558E548D538C5291
:1012D900AF63AE62AD61AC60EC4D4E4F700C85559D
:1012E90063855462855361855260AB59AA58A957E1
:1012F900A856E4FFFE7D807C3F120069AB55AA54D5
:10130900A953A85212015EC004C005C006C007AFA8
:1013190059AE58AD57AC56AB63AA62A961A8601221
:10132900015ED003D002D001D00012006D8F5D8E16
:0D1339005C8D5B8C5A8F638E628D618C60C1
:011346002284
:0518340083000000002C
:1011D2008B3E8A3F8940900003ED120636AB42AA4D
:1011E20043A944C003C002C001AB3EAA3FA94012BA
:1011F20007E2AB45AA46A947C003C002C001AB3E05
:10120200AA3FA940900004120861AB48AA49A94A22
:10121200C003C002C001AB3EAA3FA9409000071222
:101222000861AB4BAA4CA94DC003C002C001AB3E42
:10123200AA3FA94090000A120861AB4EAA4FA950DA
:10124200C003C002C001AB3EAA3FA94090000D12EC
:031252000861220E
:10189F007800E2FB08E2FA08E2F9EA494B602F7898
:1018AF0000E2FB08E2FA08E2F990000A120831EAB6
:1018BF00494B601A7800E2FB08E2FA08E2F990005F
:0F18CF000A1208317800EBF208EAF208E9F22277
:1018DE007800E2FB08E2FA08E2F9EA494B602F7859
:1018EE0000E2FB08E2FA08E2F990000D120831EA74
:1018FE00494B601A7800E2FB08E2FA08E2F9900020
:0F190E000D1208317800EBF208EAF208E9F22234
:1015F4007800E2FB08E2FA08E2F990000D120831E3
:10160400EA494B60051218DE80E67800E2FB08E246
:10161400FA08E2F9EA494B602F7800E2FB08E2FAA3
:1016240008E2F9900007120831EA494B601A780081
:10163400E2FB08E2FA08E2F99000071208317800A8
:09164400EBF208EAF208E9F222D7
:10164D007800E2FB08E2FA08E2F990000D12083189
:10165D00EA494B60051218DE80E67800E2FB08E2ED
:10166D00FA08E2F9EA494B602F7800E2FB08E2FA4A
:10167D0008E2F9900004120831EA494B601A78002B
:10168D00E2FB08E2FA08E2F9900004120831780052
:09169D00EBF208EAF208E9F2227E
:101A29007800E2FB08E2FA08E2F9EA494B60227819
:101A390000E2FB08E2FA08E2F91207C2EA494B6040
:101A4900107800E2FB08E2FA08E2F91207C212086C
:021A5900E02289
:031839000171003A
:10141E008B3E8A3F89408C418D42E571D3940A50B0
:10142E004E781BE2FC08E2FD08E2FE08E2FFE571E1
:10143E0075F009A42487F582E43400F58312079A27
:10144E00E57175F009A4248BF582E43400F583E58B
:10145E0041F0A3E542F0E57175F009A4248DF58203
:10146E00E43400F583EBF0A3EAF0A3E9F005712272
:100F2300E4F53EE53EC39571400302100EE53E75C0
:100F3300F009A42487F582E43400F583E0F8A3E004
:100F4300F9A3E0FAA3E0FBC000781BE2FC08E2FD92
:100F530008E2FE08E2D000C39BFBEE9AFAED99F992
:100F6300EC98F8E53E75F009A4248BF582E434008F
:100F7300F583E0FEA3E0FFE4FCFDC31207894039DB
:100F8300781BE2FC08E2FD08E2FE08E2FFE53E759D
:100F9300F009A42487F582E43400F58312079AE567
:100FA3003E75F009A4248DF582E43400F583A3E0B3
:100FB300FAA3E0F91208E0804DE53E75F009A42498
:100FC30087F582E43400F583E0FCA3E0FDA3E0FEB3
:100FD300A3E0FF781BE2FB08E2F908E2FA08E2CBA0
:100FE300F8D3120789501F781BE2FC08E2FD08E2E0
:100FF300FE08E2FFE53E75F009A42487F582E43498
:0B10030000F58312079A053E020F263D
:01100E0022BF
:030000000210C229
:0C10C200787FE4F6D8FD758171021109F9
:06183C00841B0000000007
:10100F00121BC6121D08121D5212198FE4FBFA791A
:10101F00A0784212030440F17E007F087D007BFE22
:10102F007A0079031208E67E007F087D0A7BFE7A3C
:10103F000079131208E67E007F087D007BFE7A00A0
:10104F00790B1208E67BFE7A00791F121794120DA6
:10105F00C37BFF7A1779477D0A7C0012141E7BFF32
:10106F007A1C799E7DE87C0312141E7BFF7A1D7912
:10107F00B47DF47C0112141E7BFF7A1D79A87DEEDE
:10108F007C0212141E7BFF7A1D79CC7DC87C001266
:10109F00141E7BFF7A1D79807DC87C0012141E7B85
:1010AF00FF7A1379477D327C0012141ED2AF120FD4
:0310BF002380FB90
:0300630002147E06
:10147E00C0E0C0F0C083C082C0D075D000C000C034
:10148E0001C002C003C004C005C006C007781BE23D
:10149E00FC08E2FD08E2FE08E22401FFE43EFEE461
:1014AE003DFDE43CFC781B1207A6051BE51B7002F4
:1014BE00051A121A5BD007D006D005D004D003D07F
:1014CE0002D001D000D0D0D082D083D0F0D0E03284
:03002300021AE2DC
:101AE200C0E0C0D075D000C000C007309813C298C3
:101AF200751A00751B00AF12051274222FF8E599B2
:0A1B0200F2D007D000D0D0D0E032BE
:0D1D8F0073797374696D653A25640D0A005F
:10184200831F173B3202100000010B00C109C10ABD
:0C185200C18B010C00C10C030D00000054
:101747001216A68F08E508650BFF5508F509E50889
:10175700F45FF50A85080BE50924FC602314602370
:10176700146023146023147023A209B392097E0026
:101777007F08A209E433FD7BFE7A00790B0208E6B5
:0C17870002164D0215F402189F1218DE25
:011793002233
:101A5B00781BE2FC0808E2FE08E25407FF8F517482
:101A6B00132FF8E2FD74032FF8E224FF920E1200FD
:101A7B0026740B2551F8E224FF920EAF5102191D6B
:101C9E00C28CC2ABAF8CEFAD8AF510EDF511E4F549
:081CAE008AF58CD2ABD28C2226
:101C0000A20A920F7F40121BA3A20B920F7F101209
:0C1C10001BA3A20AB3920AA20BB3920B12
:011C1C0022A5
:091DB4007BFE7A00791F021AB7C8
:0C1DA80012198F8F198E188D178C1622BF
:061DCC001219578F1522C9
:10159800050CE50CB4042AE4F50C7BE87A03F9F8A9
:1015A800C000781BE2FC08E2FD08E2FE08E2FFD07A
:1015B800001206E98E258F267BFF7A1D798F120986
:1015C800B6D3E51B942CE51A9401401F7822E2B4A7
:0215D8003119C7
:1015DA00E4F512F2FE7F08A20C33FD7BFE7A007955
:0915EA000B1208E6A20CB3920CEE
:0115F30022D5
:0F1D80007F41121B0C8F137F43121B0C8F1422F9
:10134700E50E450F450D700F7800E2FB08E2FA083D
:10135700E28B0D8A0EF50F7800E2FB08E2FA08E24D
:10136700F9EB8A838982AB0DAA0EA90F650D700A66
:10137700E50F65827004E50E6583602D7E007F08AA
:101387007D0A7BFE7A0079131208E67E007F087DCE
:10139700007BFE7A0079031208E67800E2FB08E298
:0C13A700FA08E28B0D8A0EF50F021A29DD
:1012550085194185184085173F85163E7813740119
:10126500F208740AF2E4FFFE7D207C41AB41AA40FE
:10127500A93FA83E12015E1203BBAB07AA067C007C
:101285007D641206587C007D0A1206587818EDF226
:101295007C007D0AAF03AE021206587C007D0A125F
:1012A50006587819EDF2E4FFFE7D207C41AB41AA9A
:1012B50040A93FA83E12015E1203BB7C007D0A12C5
:0B12C5000658781AEDF278097401F267
:0112D00022FB
:1014DE00AF137E007543CD7542CC75414C75403EC1
:1014EE001213B3AB07AA0678137402F208740AF249
:1014FE0078167401F27C007D641206587C007D0A19
:10150E001206587818EDF27C007D0AAF03AE021277
:10151E0006587C007D0A1206587819EDF2AE02AF1D
:0C152E00037C007D0A120658781AEDF2CA
:01153A00228E
:10153B00AF147E007543CD7542CC75414C75403E62
:10154B001213B3AB07AA0678137402F208740AF2EB
:10155B0078167402F27C007D641206587C007D0ABA
:10156B001206587818EDF27C007D0AAF03AE02121A
:10157B0006587C007D0A1206587819EDF2AE02AFC0
:0C158B00037C007D0A120658781AEDF26D
:011597002231
:1016F70078137403F208740AF2781FE2FF75F00A90
:10170700847815F2EF75F00A8408E5F0F27806742C
:101717000BF27820E2FF75F00A847817F2EF75F084
:101727000A8408E5F0F27808740BF27821E2FF7575
:10173700F00A847819F2EF75F00A8408E5F0F222CE
:10185F00AF157E007543CD7542CC75414C75403E3A
:10186F001213B378137404F208740AF2EF75F0646C
:10187F008475F00A8408E5F0F2EF75F00A8475F0CC
:0F188F000A8408E5F0F2EF75F00A8408E5F0F23C
:01189E002227
:10114E007543CD7542CC75414C75403EAF11AE1016
:10115E001213B3AB07AA0678137405F208740AF2D9
:10116E007C277D101206587C007D0A1206587815D1
:10117E00EDF27C037DE8AF03AE021206587C007DD3
:10118E000A1206587816EDF27C007D64AF03AE02AB
:10119E001206587C007D0A1206587817EDF27C0074
:1011AE007D0AAF03AE021206587C007D0A12065865
:1011BE007818EDF2AE02AF037C007D0A1206587865
:0311CE0019EDF226
:0111D10022FB
:100DC3007542FF75431275445575450175460075A7
:100DD3004727754801754900754A57754B00754C8F
:100DE30000754D00754E00754F007550007B017AFC
:100DF3000079477D201211D27542FF754314754463
:100E0300DE7545017546007547477548017549000C
:100E1300754A37754B01754C00754D67754E0075F6
:100E23004F007550007B017A0079577D301211D243
:100E33007542FF75431575443B754500754600754E
:100E43004700754800754900754A00754B01754C9C
:100E530000754D57754E01754F007550577B017ADC
:100E63000079677D311211D27542FF7543167544BF
:100E7300F775450175460075475775480175490073
:100E8300754A77754B00754C00754D00754E0075AE
:100E93004F007550007B017A0079377D401211D2E3
:100EA3007542FF75431875445F75450175460075B6
:100EB3004737754801754900754A27754B00754CCE
:100EC30000754D00754E00754F007550007B017A1B
:100ED3000079777D501211D27542FF754311754425
:100EE3004E7545017546007547777548017549008C
:100EF300754A47754B00754C00754D00754E00756E
:100F03004F007550007B017A0079277D601211D262
:100F130078007401F2087400F2087447F2021A2987
:10006600020427E86480F8E933E83360110460F09D
:10007600ED33EC337009E8FCE9FDEAFEEBFF220400
:1000860060DED3EB9FEA9EE99DE8C2E78CF0C2F7FB
:1000960095F0400CE8CCF8E9CDF9EACEFAEBCFFBC7
:1000A6001203F285D0F05804700320D5B3E804702B
:1000B600075002B2D502043192D5EC0460F7E4CCC5
:1000C600C0E0C398F8603B94186008400DD0E0FB90
:1000D600020409E4FBFAC9FC8028E830E406E4C916
:1000E600FBE4CAFCE830E305E4C9CACBFCE85407E4
:1000F6006010F8C3E913F9EA13FAEB13FBEC13FCEF
:10010600D8F130F52FC3E49CFCEF9BFFEE9AFEED91
:1001160099FDD0E0FBEF4E4D4C701222DB0302043A
:100126002EEC2CFCEF33FFEE33FEED33FDED30E726
:10013600EB020409EF2BFFEE3AFEED39FDD0E0FBB2
:1001460050130BBB0003020431ED13FDEE13FEEF5B
:0801560013FFEC13FC02040985
:10015E00EC4D6011E8497017ED33EC3304600DE49B
:10016E00FCFFFEFD22E933E8330470F80204271287
:10017E0003F258046009E4CC248150062850090289
:10018E00043128400302042EC0E0EB4A7044B980CB
:10019E0006D0E0FB02041DEF4E701CBD8008EBFF85
:1001AE00EAFEE9FD80EBE98DF0A4FEE5F0020247E0
:1001BE00E9CDF9EAFEEBFFEF89F0A4FCE5F0CE897C
:1001CE00F0A42EFFE435F0CD89F0A42DFEE435F039
:1001DE008067EF4E7005BD80D780C3EF8BF0A4AC67
:1001EE00F0EE8BF0A42CFCE435F0F8EF8AF0A42CA2
:1001FE00E5F038FCE433CB8DF0A42CFCE5F03BF8B5
:10020E00EE8AF0A42CFCE5F038F8E433CF89F0A4A4
:10021E002CFCE5F038CF3400CE89F0A42FFFE5F0AA
:10022E003EFEE433C98DF0A42EFEE5F039CD8AF002
:10023E00A42FFFE5F03EFEE43DFD33D0E0FB50077A
:10024E000BBB000F020431EC2CFCEF33FFEE33FE40
:06025E00ED33FD0204096E
:10026400020431EC5D046005E859047003020427BC
:100274001203F2580460F6EC4860F2EC7004FDFEE0
:10028400FF22C860DB2481C85009C398600250066D
:1002940002042E9850CAF582E9294B4A7005AB82B4
:1002A40002041D75F0007C1A7880C3EF9BEE9AED72
:1002B40099400DC3EF9BFFEE9AFEED99FDE842F0E5
:1002C400DC23ACF0D0E0FFD0E0FED0E0FDAB822038
:1002D400E7101BEB60BAEC2CFCEF33FFEE33FEEDC2
:1002E40033FD020409E803F830E705C0F075F000B7
:1002F400EF2FFFEE33FEED33FD40B830E7C280AAA6
:1003040074F8CC6480CCC86480C8F58204604FC3A0
:10031400EB9FF5F0EA9E42F0E99D42F0E89C45F03F
:10032400603C501DE5825FFFE582D313CB5BCBF4C9
:100334002B5582FB50280ABA002409B900200880F2
:100344001DE5825BFBE582D313CF5FCFF4C3132F8C
:100354005582FF50090EBE00050DBD00010CC3EB14
:100364009FF5F0EA9E42F0E99D42F0E89C45F0607A
:0903740007CC4820E701B3EC229C
:10037D0075F020800E75F010800575F0087D007EFB
:10038D00007F003392D530D50312077BEC3340103C
:10039D00EF33FFEE33FEED33FDEC33FCD5F0ED2204
:0E03AD00E5F0247EA2D513CC92E7CDCEFF2240
:1003BB00EDD2E7CD33EC3392D524814006E4FFFE3A
:1003CB00FDFC22FCE4CFCECDCC24E0501174FF8099
:1003DB00EDC3CC13CCCD13CDCE13CECF13CF047036
:0703EB00F030D5DE02077BB4
:10095400E5392425F8E6053922782230070278257E
:10096400E475F0011207B20205DE2000EB7F2ED2FF
:10097400008018EF540F2490D43440D4FF30040B7B
:10098400EF24BFB41A0050032461FFE53A60021556
:100994003A053DE53D7002053C30070D7822E475CB
:1009A400F0011207B2EF020624021DD27403D2072B
:1009B4008003E4C207F5398B228A238924E4F53ABB
:1009C400F53CF53DE53A60077F2012098F80F57507
:1009D4003BFFC201C200C202C203C205C206C20872
:1009E40012095DFF700D3007057F001209A0AF3DAD
:1009F400AE3C22B4255FC2D5C20412095DFF24D0E7
:100A0400B40A00501A75F00A783A30D50508B6FFD2
:100A14000106C6A426F620D5047002D20380D92488
:100A2400CFB41A00EF5004C2E5D204020C8DD201F7
:100A340080C6D20080C0D20280BCD2D580BAD20592
:100A440080B47F2012098F2002077401B53A004058
:100A5400F1120954FF12098F0209C8D208D2068084
:100A640095120954FB120954FA120954F94A4B70AD
:100A74000679847A0D7BFF20022EE53A602A7E00F7
:100A84008E827583001205F760060EEE653B70F0EA
:100A9400C2D5EBC0E0EAC0E0E9C0E0EE120CEDD054
:100AA400E0F9D0E0FAD0E0FB1205DEFF60AAEBC06B
:100AB400E0EAC0E0E9C0E012098FD0E02401F9D0F7
:100AC400E03400FAD0E0FBE53B0460DCD53BD980A0
:100AD40087D20280A2120CD060F7E53B70010412A9
:100AE400043CA93B600DE53B600914F53B120D770E
:100AF400EF60F3EA30E702F404C3995077EAF4258F
:100B04003B0430E701E404F53B800D120CD060C1D6
:100B1400EA053B253B12043CEA7838F630E701E469
:100B2400253B04D53B0420050114120CEDE4C0E080
:100B3400120D777838E6601320E70714F612097768
:100B4400802204F6D0E014C0E07F00120977E53B70
:100B5400600712096E153B800B30050312096ED035
:100B6400E00209C8D0E00480C5120CD060A0E53BC7
:100B74000412043C7838EAF6E53B200502600104DF
:050B84002404120CED39
:100B890074FF04C0E0120D77120977E53B200502D6
:100B9900600312096ED0E0B53BE87F451209817800
:100BA90038E67F2B30E7047F2DF404C0E012098F6B
:100BB900D0E075F00A84C0F0120978D0E012097803
:100BC9000209C8791080027908C206C2088008D2D1
:100BD900D5790A8004790AC2D5E53B047002F53B50
:100BE900E4FAFDFEFF120954FC7B082001131209E7
:100BF90054FD7B1030000A120954FE120954FF7B80
:100C090020EC3382D592D55013C3E43000069FFF00
:100C1900E49EFEE42001039DFDE49CFCE4CBF8C2C4
:100C290001EC700CCFCECDCCE824F8F870F3801726
:100C3900C3EF33FFEE33FEED33FDEC33FCEB33FB57
:100C4900994002FB0FD8E9EB300105F8D0E0C44820
:100C5900B201C0E00AEC4D4E4F78207B0070C2EA29
:100C6900B53B0040BCC0E0120CEFD0F0D0E0200151
:100C790004C4C0E0C4B201C0F0120978D0F0D5F0C4
:100C8900EB0209C81208BA0A65530BCC580A364C4C
:100C99000A32420BD04F0BD8440BD8490A4B430BAD
:100CA900DE550B0F460B6D450AD9470DA4500A3A7C
:100CB9002D0A3E2E0A612B0A42230A5F200D8D2A36
:100CC90009FA4800000A59E53BB4FF03753B0612CF
:100CD9000954FC120954FD120954FE120954FF78F3
:100CE9003102046B790AA2D5200314300509B91021
:100CF900020404B9080104A2D52006025001042007
:100D090002689202B53A005034C0E07F20300319DE
:100D19007F30A20272067205500F120D46C202C23E
:100D290006C205C2087F30800F300503E9C0E01212
:100D3900098F300503D0E0F9D0E0B53ACC3005177A
:100D49007F30B9100C12098F7F583004077F7880E3
:100D590003B9080312098F3002057F2D02098F7F1D
:100D6900202008F87F2B2006F322920280CF7F00F3
:100D7900B4070050052431F8E6FF22286E756C6C23
:100D89002900D2011209543001F8C201783A30D54C
:100D99000108F60209FA2D5043495812095424034F
:100DA900B405004001E4900D9F93120980743A1232
:0A0DB9000980D203753A04020BCC46
:1003F200E9D2E7C933E833F892D5EDD2E7CD33EC51
:0704020033FC5002B2D522C9
:10040900EC30E7100FBF000C0EBE00080DBD000454
:100419000BEB6014A2D5EB13FCED92E7FD2274FF00
:10042900FCFDFEFF22E480F8A2D574FF13FC7D8059
:03043900E480EF6D
:10043C00F920E72824F950037907E4F42402FB1887
:10044C00DBFDE624FB5014E9600DE4F618E604F637
:0F045C00B40A08E4F6D9F57401F60A22C2D522D3
:10046B00ED33EC3392D5FA602AB4FF33EDC2E77B60
:10047B00FF60067A047990E4227A04799920D504F6
:10048B007A047994224E614E002B494E46002D4939
:10049B004E4600E47A08F608DAFC7B00740722E883
:1004AB00C0E0ECC0E0EDC0E0EEC0E0EFC0E0EA750C
:1004BB00F010A4CAABF075F04DA42BFBE435F0FCA7
:1004CB00EA2410FAEB34C5FBEC34D9FCEDC2E7FFA0
:1004DB0075F056A4F42411C5F0F434C58FF0A42A9A
:1004EB00E5F03BE43CF620E71412059ED0E0FFD08C
:1004FB00E0FED0E0FDD0E0FC1202678014F40412A1
:10050B00059ED0E0FFD0E0FED0E0FDD0E0FC120174
:10051B005ED0E0F8E6FAEDD2E7CD33EC332482FB84
:10052B00E4C3CF33CFCE33CECD33CD33DBF37B0729
:10053B0075F00A846004F6081B0AE5F0F6088FF0E4
:10054B00740AA4FFACF08EF0740AA42CFEACF0502D
:10055B00010C8DF0740AA42CFDE435F0F608DBDEFB
:03056B00740722F0
:10056E003F8000004120000042C80000447A000095
:10057E00461C400047C35000497424004B18968017
:10058E004CBEBC205A0E1BCA6753C21C749DC5AE0E
:10059E00FB60065407601C23231205CCEB54386015
:1005AE00091205B81205C712015EECF8EDF9EEFA64
:1005BE00EFCB22EB1205C780F1543803241C9005B3
:1005CE006EFE93FC0EEE93FD0EEE930ECE93FF2277
:1010CE0002100FE493A3F8E493A34003F68001F219
:1010DE0008DFF48029E493A3F85407240CC8C33323
:1010EE00C4540F4420C8834004F456800146F6DFF2
:1010FE00E4800B010204081020408090181EE47E4C
:10110E00019360BCA3FF543F30E509541FFEE493E6
:10111E00A360010ECF54C025E060A840B8E493A3AD
:10112E00FAE493A3F8E493A3C8C582C8CAC583CAD8
:10113E00F0A3C8C582C8CAC583CADFE9DEE780BE90
:01185E000089
:1005DE00BB010689828A83E0225002E722BBFE021B
:0905EE00E32289828A83E493224E
:1005F700BB010CE58229F582E5833AF583E02250B9
:1006070006E92582F8E622BBFE06E92582F8E22202
:0D061700E58229F582E5833AF583E493221C
:10062400BB010689828A83F0225002F722BBFE01B5
:02063400F322AF
:10063600F8BB010DE58229F582E5833AF583E8F0FA
:10064600225006E92582C8F622BBFE05E92582C8A6
:02065600F2228E
:10065800BC000BBE0029EF8DF084FFADF022E4CC86
:10066800F875F008EF2FFFEE33FEEC33FCEE9DEC4F
:10067800984005FCEE9DFE0FD5F0E9E4CEFD22ED95
:10068800F8F5F0EE8420D21CFEADF075F008EF2FDF
:10069800FFED33FD4007985006D5F0F222C398FDD0
:0506A8000FD5F0EA226D
:1006AD0075F008758200EF2FFFEE33FECD33CDCC04
:1006BD0033CCC58233C5829BED9AEC99E582984087
:1006CD000CF582EE9BFEED9AFDEC99FC0FD5F0D664
:1006DD00E4CEFBE4CDFAE4CCF9A88222B800C1B98E
:1006ED000059BA002DEC8BF084CFCECDFCE5F0CBCC
:1006FD00F97818EF2FFFEE33FEED33FDEC33FCEB05
:10070D0033FB10D703994004EB99FB0FD8E5E4F9BF
:10071D00FA227818EF2FFFEE33FEED33FDEC33FCAC
:10072D00C933C910D7059BE99A4007EC9BFCE99AA0
:10073D00F90FD8E0E4C9FAE4CCFB2275F010EF2FE5
:10074D00FFEE33FEED33FDCC33CCC833C810D707E5
:10075D009BEC9AE899400AED9BFDEC9AFCE899F820
:0E076D000FD5F0DAE4CDFBE4CCFAE4C8F922B3
:0E077B00C3E49FFFE49EFEE49DFDE49CFC228F
:10078900EB9FF5F0EA9E42F0E99D42F0E89C45F0C6
:01079900223D
:0C079A00ECF0A3EDF0A3EEF0A3EFF022D2
:0C07A600ECF208EDF208EEF208EFF2228F
:1007B200FAE6FB0808E6F925F0F618E6CA3AF62248
:1007C200BB010789828A830209245005E9F80209DC
:1007D20012BBFE05E9F802093689828A83020948BA
:1007E200BB011A89828A83D0F0D0E0F8D0E0F9D038
:1007F200E0FAD0E0FBE8C0E0C0F002092D5016E9B3
:10080200F8D083D082D0E0F9D0E0FAD0E0FBC08209
:10081200C08302091BBBFE16E9F8D083D082D0E068
:0F082200F9D0E0FAD0E0FBC082C08302093F2288
:10083100BB010DE58229F582E5833AF5830209249E
:100841005007E92582F8020912BBFE07E92582F863
:10085100020936E58229F582E5833AF583020948E2
:10086100BB0120E58229F582E5833AF583D0F0D0FA
:10087100E0F8D0E0F9D0E0FAD0E0FBE8C0E0C0F069
:1008810002092D5018E92582F8D083D082D0E0F9F1
:10089100D0E0FAD0E0FBC082C08302091BBBFE1886
:1008A100E92582F8D083D082D0E0F9D0E0FAD0E017
:0908B100FBC082C08302093F2252
:1008BA00D083D082F8E4937012740193700DA3A3CD
:1008CA0093F8740193F5828883E4737402936860E1
:0608DA00EFA3A3A380DFE1
:0608E0008A838982E473A3
:1008E600EF4E6012EF60010EEDBB010B89828A8329
:1008F600F0A3DFFCDEFA2289F05007F709DFFCA936
:0C090600F022BBFEFCF309DFFCA9F0228C
:09091200E6FB08E6FA08E6F9220A
:09091B00EBF608EAF608E9F62201
:09092400E0FBA3E0FAA3E0F922D4
:09092D00EBF0A3EAF0A3E9F022CB
:09093600E2FB08E2FA08E2F922F2
:09093F00EBF208EAF208E9F222E9
:0C094800E493FB740193FA740293F9220B
:00000001FF
